{
  "contractName": "ToDoList",
  "abi": [
    {
      "constant": true,
      "inputs": [
        {
          "name": "",
          "type": "uint256"
        }
      ],
      "name": "tasks",
      "outputs": [
        {
          "name": "id",
          "type": "uint256"
        },
        {
          "name": "content",
          "type": "string"
        },
        {
          "name": "priority",
          "type": "uint256"
        },
        {
          "name": "completed",
          "type": "bool"
        }
      ],
      "payable": false,
      "stateMutability": "view",
      "type": "function",
      "signature": "0x8d977672"
    },
    {
      "constant": true,
      "inputs": [],
      "name": "taskCount",
      "outputs": [
        {
          "name": "",
          "type": "uint256"
        }
      ],
      "payable": false,
      "stateMutability": "view",
      "type": "function",
      "signature": "0xb6cb58a5"
    },
    {
      "inputs": [],
      "payable": false,
      "stateMutability": "nonpayable",
      "type": "constructor",
      "signature": "constructor"
    },
    {
      "constant": false,
      "inputs": [
        {
          "name": "_content",
          "type": "string"
        },
        {
          "name": "_priority",
          "type": "uint256"
        }
      ],
      "name": "createTask",
      "outputs": [],
      "payable": false,
      "stateMutability": "nonpayable",
      "type": "function",
      "signature": "0x04fe2b34"
    },
    {
      "constant": false,
      "inputs": [
        {
          "name": "id",
          "type": "uint256"
        },
        {
          "name": "_content",
          "type": "string"
        },
        {
          "name": "_priority",
          "type": "uint256"
        },
        {
          "name": "completed",
          "type": "bool"
        }
      ],
      "name": "updateTask",
      "outputs": [],
      "payable": false,
      "stateMutability": "nonpayable",
      "type": "function",
      "signature": "0xe32db8ed"
    }
  ],
  "bytecode": "0x60806040526000805534801561001457600080fd5b506100646040805190810160405280601681526020017f54686973206973204d79204669727374205461736b2e000000000000000000008152506003610069640100000000026401000000009004565b6101b2565b600080815480929190600101919050555060806040519081016040528060005481526020018381526020018281526020016000151581525060016000805481526020019081526020016000206000820151816000015560208201518160010190805190602001906100db92919061010d565b506040820151816002015560608201518160030160006101000a81548160ff0219169083151502179055509050505050565b828054600181600116156101000203166002900490600052602060002090601f016020900481019282601f1061014e57805160ff191683800117855561017c565b8280016001018555821561017c579182015b8281111561017b578251825591602001919060010190610160565b5b509050610189919061018d565b5090565b6101af91905b808211156101ab576000816000905550600101610193565b5090565b90565b610639806101c16000396000f3fe608060405260043610610062576000357c0100000000000000000000000000000000000000000000000000000000900463ffffffff16806304fe2b34146100675780638d97767214610139578063b6cb58a514610206578063e32db8ed14610231575b600080fd5b34801561007357600080fd5b506101376004803603604081101561008a57600080fd5b81019080803590602001906401000000008111156100a757600080fd5b8201836020820111156100b957600080fd5b803590602001918460018302840111640100000000831117156100db57600080fd5b91908080601f016020809104026020016040519081016040528093929190818152602001838380828437600081840152601f19601f82011690508083019250505050505050919291929080359060200190929190505050610319565b005b34801561014557600080fd5b506101726004803603602081101561015c57600080fd5b81019080803590602001909291905050506103bd565b604051808581526020018060200184815260200183151515158152602001828103825285818151815260200191508051906020019080838360005b838110156101c85780820151818401526020810190506101ad565b50505050905090810190601f1680156101f55780820380516001836020036101000a031916815260200191505b509550505050505060405180910390f35b34801561021257600080fd5b5061021b610492565b6040518082815260200191505060405180910390f35b34801561023d57600080fd5b506103176004803603608081101561025457600080fd5b81019080803590602001909291908035906020019064010000000081111561027b57600080fd5b82018360208201111561028d57600080fd5b803590602001918460018302840111640100000000831117156102af57600080fd5b91908080601f016020809104026020016040519081016040528093929190818152602001838380828437600081840152601f19601f82011690508083019250505050505050919291929080359060200190929190803515159060200190929190505050610498565b005b6000808154809291906001019190505550608060405190810160405280600054815260200183815260200182815260200160001515815250600160008054815260200190815260200160002060008201518160000155602082015181600101908051906020019061038b929190610568565b506040820151816002015560608201518160030160006101000a81548160ff0219169083151502179055509050505050565b6001602052806000526040600020600091509050806000015490806001018054600181600116156101000203166002900480601f01602080910402602001604051908101604052809291908181526020018280546001816001161561010002031660029004801561046f5780601f106104445761010080835404028352916020019161046f565b820191906000526020600020905b81548152906001019060200180831161045257829003601f168201915b5050505050908060020154908060030160009054906101000a900460ff16905084565b60005481565b60008414156104bb57600160008581526020019081526020016000206000015493505b60058211156104c957600591505b60008210156104d757600091505b60806040519081016040528085815260200184815260200183815260200182151581525060016000868152602001908152602001600020600082015181600001556020820151816001019080519060200190610534929190610568565b506040820151816002015560608201518160030160006101000a81548160ff02191690831515021790555090505050505050565b828054600181600116156101000203166002900490600052602060002090601f016020900481019282601f106105a957805160ff19168380011785556105d7565b828001600101855582156105d7579182015b828111156105d65782518255916020019190600101906105bb565b5b5090506105e491906105e8565b5090565b61060a91905b808211156106065760008160009055506001016105ee565b5090565b9056fea165627a7a723058203e814142552c4630509fcec43e321f38a37a6f0d75844718940937c72b44702f0029",
  "source": "pragma solidity ^0.5.0;\r\n\r\ncontract ToDoList{\r\n//    variable to hold total number of tasks\r\n    uint public taskCount = 0;\r\n\r\n//    model and its attributes\r\n    struct Task{\r\n        uint id;\r\n        string content;\r\n        uint priority;\r\n        bool completed;\r\n    }\r\n\r\n//    actual database to hold the model created above\r\n    mapping(uint => Task) public tasks;\r\n\r\n\r\n//    this function is an intializer for the smart contract\r\n    constructor() public{\r\n        createTask('This is My First Task.', 3);\r\n    }\r\n\r\n    function createTask(string memory _content,uint _priority) public{\r\n        taskCount ++;\r\n        tasks[taskCount] = Task(taskCount, _content, _priority, false);\r\n    }\r\n\r\n    function updateTask(uint  id, string memory _content, uint _priority, bool completed) public{\r\n        if (id == 0){\r\n            id = tasks[id].id;\r\n        }\r\n        if (_priority > 5 ){\r\n            _priority = 5;\r\n        }\r\n\r\n        if (_priority < 0){\r\n            _priority = 0;\r\n        }\r\n        tasks[id] = Task(id, _content, _priority, completed);\r\n    }\r\n\r\n\r\n\r\n}\r\n\r\n\r\n",
  "sourcePath": "C:/Users/hp/WebstormProjects/BlockToDo/contracts/ToDoList.sol",
  "compiler": {
    "name": "solc",
    "version": "0.5.0+commit.1d4f565a.Emscripten.clang"
  },
  "schemaVersion": "3.0.1",
  "updatedAt": "2020-07-02T18:44:18.270Z",
  "devdoc": {
    "methods": {}
  },
  "userdoc": {
    "methods": {}
  }
}